:020000040800F2
:10000000F8420020C50100088D4B0008A93B0008FC
:10001000894B0008490900085D66000800000000DF
:10002000000000000000000000000000415D00082A
:100030006509000800000000515C0008C962000862
:10004000DF010008DF010008DF010008DF01000810
:10005000DF010008DF010008DF010008DF01000800
:10006000DF010008DF010008DF010008DF010008F0
:100070004D09000859090008DF010008DF010008E8
:10008000DF010008DF010008DF010008DF010008D0
:10009000DF010008DF010008DF010008DF010008C0
:1000A000DF010008DF010008DF010008DF010008B0
:1000B000DF010008ED620008DF010008DF01000831
:1000C000DF010008DF010008DF010008DF01000890
:1000D000DF010008DF010008DF01000851660008A9
:1000E000DF010008DF010008DF01000800F002F86E
:1000F00000F058F814A696E8000CB244B344DA4570
:1001000001D100F04FF8BAE80F000FA696E83000D2
:10011000A5EB040504EB0607AAEB0704A7F101070A
:100120004FEA15154FEA3414A4F10104AC4201D38F
:1001300000F038F813F0010F18BFFB1A43F0010369
:1001400000F001F8DBE71847BCB30000DCB30000A7
:10015000103A24BF78C878C1FAD8520724BF30C8F3
:1001600030C144BF04680C60704700007047000055
:100170000023002400250026103A28BF78C1FBD8B0
:10018000520728BF30C148BF0B607047642900F098
:10019000CB80732900F05782002070471FB51FBD28
:1001A00010B510BD00F085FA1146FFF7F7FF06F015
:1001B000EDFA00F0A3FA03B4FFF7F2FF03BC00F07E
:1001C000ABFA00000948804709480047FEE7FEE710
:1001D000FEE7FEE7FEE7FEE7FEE7FEE7FEE7FEE7F7
:1001E00004480549054A064B70470000E9620008CB
:1001F000ED000008F83C0020F8420020F83E002006
:10020000F83E00200FB41CB5074B06AA7B44694694
:100210000090059800F0E5F90020694600F0F4F937
:100220001CBC5DF814FB0000F90300000FB41CB502
:100230000C0007AA009007D04142A14202D32044FB
:10024000401E01E04FF0FF30074B7B4469460190B0
:10025000069800F0C6F90020002C01D00099087023
:100260001CBC5DF814FB0000C50300002DE9F04143
:100270000E460446002020622046E168884730B3DD
:10028000252805D0D4E901219047206A401CF2E7D7
:10029000E168204600278847050018D0A5F14100F5
:1002A000192802D820354FF40067324629462046E7
:1002B0002760FFF76BFF40B1012804D0F61D26F040
:1002C00007060836D8E7361DD6E72846DAE7206A5B
:1002D000BDE8F08170B50C460546012A05D02878A6
:1002E000800600D5EA69002302E0012305E05B1CDB
:1002F000934202D2E05C0028F9D1A869E618C01A3E
:10030000A861286A184428622846AFF3008004E0F8
:10031000D5E9012114F8010B9047B442F8D32846DF
:10032000AFF3008070BD00002DE9F04106460024C7
:1003300010687529314616A510D0AFF3008000284B
:1003400002DA404213A507E031688A0701D512A5F9
:1003500002E0490704D511A5012401E0AFF30080B4
:1003600000210A2206F1240709E0B0FBF2FCB0FBF1
:10037000F2F302FB1C00303078541846491C002868
:10038000F3D123462A463046BDE8F04100F0CAB812
:10039000000000002D0000002B00000020000000E5
:1003A00040EA010310B59B070FD1042A0DD310C8F2
:1003B00008C9121F9C42F8D020BA19BA884201D944
:1003C000012010BD4FF0FF3010BD1AB1D30703D08C
:1003D000521C07E0002010BD10F8013B11F8014B42
:1003E0001B1B07D110F8013B11F8014B1B1B01D15E
:1003F000921EF1D1184610BD10B5431C02E010F852
:10040000011B71B18107FAD14FF0013202C88C1A79
:100410008C4314EAC211F9D0C01A0A0603D0C01ED8
:1004200010BDC01A10BD0A0401D0801E10BD090203
:10043000FCD0401E10BD032A40F2308010F0030CA7
:1004400000F0158011F8013BBCF1020F624498BF27
:1004500011F801CB00F8013B38BF11F8013BA2F1C4
:10046000040298BF00F801CB38BF00F8013B11F03F
:10047000030300F0EC80083AC0F0088051F8043B18
:10048000083A51F804CBA0E80810F5E7121D5CBF4C
:1004900051F8043B40F8043BAFF30080D20724BF7F
:1004A00011F8013B11F801CB48BF11F8012B24BF13
:1004B00000F8013B00F801CB48BF00F8012B704762
:1004C00002F0FF0343EA032242EA024200F002B8CC
:1004D0004FF0000200B5134694469646203922BFDD
:1004E000A0E80C50A0E80C50B1F12001BFF4F7AF28
:1004F000090728BFA0E80C5048BF0CC05DF804EB0A
:10050000890028BF40F8042B08BF704748BF20F877
:10051000022B11F0804F18BF00F8012B7047704775
:10052000704770472DE9F0470D46994692460446BC
:1005300000F124080168880604D5E06921F0100163
:10054000216000E00120A84201DD471B00E00027F8
:10055000A1697A1902EB0900081AA0612078C00687
:1005600002D42046AFF30080002608E0D4E9012140
:100570001AF806009047206A401C761C20624E45FF
:10058000F4DB2078C0060AD52046AFF3008006E0F1
:10059000D4E9012130209047206A401C2062381E97
:1005A000A7F10107F4DC07E0D4E9012118F8050000
:1005B0009047206A401C2062281EA5F10105F3DC4B
:1005C0002046AFF300802078000602D50220BDE867
:1005D000F0870120FBE7000001694A1C02610878EE
:1005E000704700B58FB0CDE9013100210591054973
:1005F0007944CDE9031011466846FFF737FE0FB086
:1006000000BD0000E5FFFFFF0A6802F8010B0A6069
:100610007047D1E900239A4202D2531C0B6010703C
:10062000704710B5436913B1AFF3008001E0FFF7E5
:1006300051FE012010BD127800F124010A70002241
:100640004A700122EDE711684FF0FF32E9E710B57B
:10065000203AC0F00B80B1E81850A0E81850B1E87B
:100660001850A0E81850203ABFF4F5AF5FEA027CBA
:1006700024BFB1E81850A0E8185044BF18C918C0EA
:10068000BDE810405FEA827C24BF51F8043B40F88B
:10069000043B08BF7047D20728BF31F8023B48BF70
:1006A00011F8012B28BF20F8023B48BF00F8012BAE
:1006B0007047754600F02CF8AE4605006946534673
:1006C00020F00700854618B020B5FFF789FDBDE88A
:1006D00020404FF000064FF000074FF000084FF0A9
:1006E000000BAC46ACE8C009ACE8C009ACE8C009F6
:1006F000ACE8C00921F007018D46704710B50446EB
:10070000AFF300802046BDE81040FFF754BD000065
:10071000004870471000002001491820ABBEFEE7DA
:100720002600020070470000B0B582B004460020E9
:10073000019021688A68D2074BD1886840F0010097
:10074000886040F20800C2F2000000684DF6836144
:10075000C4F21B31A0FB0101880C01900198A0B1EB
:10076000019801380190019878B101980138019001
:10077000019850B1019801380190019828B1019871
:100780000138019001980028EAD100F057FF216854
:100790008968C9071CD1054603E000BF8068C0070F
:1007A00016D100F04BFF411B20680329F6D3816866
:1007B000C907F3D1A06A40F01000A062E06A40F0DF
:1007C0000100E062002084F82400012002B0B0BDE6
:1007D000002002B0B0BD000010B584B0282000F0A9
:1007E00005FE40F230704FF0FF34C2F200000DF110
:1007F0000F0270210123009400F0D8FF9DF80F0034
:1008000000070CD440F6BE00029040F23070C2F2F5
:10081000000002AA70210323009401F0C7F904B07C
:1008200010BD0000F0B585B0044643F2AC3040F294
:10083000307604900020C2F200060D46ADF80C00A0
:1008400002904FF0FF3704AA30467021032300972F
:1008500001F0ACF94B2000F0C9FD02AA304670212E
:100860000623009700F0A2FF9DF9080000282BD472
:100870009DF80A109DF80B609DF80900090141EAF6
:10088000161141EA003064219DF80C7048430AF0CB
:1008900059F84FF056510AF0D1F8286006F00F00D1
:1008A00039029DF80D2041EA00401044C821484318
:1008B0000AF048F84FF056510AF0C0F80021CCF287
:1008C000482109F015FF206005B0F0BD70B540F279
:1008D0009014C2F20004257840F6140640F6140085
:1008E000C2F20006C2F200004FF00C0125B102F086
:1008F000DDFC002003E000BF02F06AFC64203168E8
:10090000086485F00100207070BD000010B540F251
:100910007400C2F20000006806F0DEF940F614042C
:10092000C2F2000420460C2102F0C0FC2068002125
:10093000016410BD40F27400C2F2000000684FF480
:10094000FA7106F0ABB90000FEE7000040F2EC607F
:10095000C2F2000000F0E8BB40F2A860C2F2000062
:1009600000F0E2BB70470000082888BF70472DE9FF
:10097000F0410C46DFE810F00A00BE004A007C009F
:100980003A00F0000201AE00120100BF40F21C6804
:10099000C2F20008D8E9000509F07EFE06462046AE
:1009A0000F4609F0EAFB49F69A1249F69913C9F67F
:1009B0009912C3F6B97309F083FC32463B4609F03D
:1009C00061F9044628460E4609F066FE02460B46CB
:1009D0002046314609F003FF28B92046314609F088
:1009E0001FF9C8F80000BDE8F041704740F21C60F4
:1009F000C2F20000C18A028B21449142F3DA01293C
:100A0000A8BFC182BDE8F041704700BF40F21C683A
:100A1000C2F20008D8E9020509F03EFE064620466B
:100A20000F4609F0AAFB49F69A1249F69913C9F63E
:100A30009912C3F6B97309F043FC32463B4609F0FC
:100A400021F9044628460E4609F026FE02460B46CA
:100A50002046314609F0C3FE0028C4D12046314665
:100A600009F0DEF8C8F80800BDE8F041704700BFA3
:100A700040F21C68C2F20008D8E9025009F00CFEEE
:100A8000064620460F4609F078FB49F69A1249F6C9
:100A90009913C9F69912C3F6B97309F011FC3246DD
:100AA0003B4609F0EFF8044628460E4609F0F4FDEF
:100AB00002460B462046314609F098FE002892D1A6
:100AC0002046314609F0ACF8C8F80C00BDE8F0410A
:100AD000704700BF40F21C60C2F20000818A428A67
:100AE000214491427FF77FAF6329D8BF8182BDE85F
:100AF000F041704740F21C68C2F20008D8E900508B
:100B000009F0CAFD064620460F4609F036FB49F6B5
:100B10009A1249F69913C9F69912C3F6B97309F0F6
:100B2000CFFB32463B4609F0ADF8044628460E4658
:100B300009F0B2FD02460B462046314609F056FE4A
:100B400000287FF450AF2046314609F069F8C8F814
:100B50000400BDE8F041704740F21C60C2F20000A2
:100B6000018BC28A214491427FF73DAF42F20F725E
:100B70009142D8BF0183BDE8F041704740F21C604C
:100B8000C2F20000418A828A21449142BFF62BAF13
:100B90000129A8BF4182BDE8F041704740F21C60C6
:100BA000C2F20000018A21444A1E622A98BF0182D3
:100BB000BDE8F0417047000010B540F21C60C2F281
:100BC00000004FF44874002140F2500E048350247A
:100BD000C4F270110022002340F2000CC0F21E0E7D
:100BE000C0F21404C4F2F012C4F2A013C4F28C2CAC
:100BF00080E80E10C0E9044E10BD0000EFF3108035
:100C000072B600BFFEE7000070B581B0002200920E
:100C100090F82420012A03D10221084601B070BDBA
:100C20004A680123062A02EB820E80F8243007D896
:100C3000D0F800C06FF004030CF134060CE000BFE4
:100C4000D0F800C00C2A87BF0CF12C066FF04003CF
:100C50000CF130066FF022030EEB03021F23346801
:100C600003FA02F50B6824EA050503FA02F22A43A7
:100C70003260092B03EB43021AD9DCF80C601E3AF0
:100C8000072589689540AE43914023F00102314326
:100C9000102ACCF80C1015D142F20041C4F2010127
:100CA0008C4517D0816A41F02001816201210AE060
:100CB000DCF81030072689689640B3439140194309
:100CC000CCF810100021002280F82420084601B042
:100CD00070BD00BF89680902F4D4DCF80810102B3D
:100CE00041F40001CCF80810ECD140F20801C2F246
:100CF000000109684DF68362C4F21B32A1FB0212A7
:100D0000910C01EB81014900009100990029D9D093
:100D100000990139009100990029D3D00099013937
:100D2000009100990029CDD00099013900910099D6
:100D30000029C7D0009901390091009900294FF08E
:100D40000001E5D1BFE700000068C06C70470000FB
:100D5000002804BF01207047B0B50446806A28B15E
:100D600021688868C0070CD115E000BF0020E06250
:100D700084F82400204600F097F821688868C007AE
:100D800009D0886820F00100886000F057FC2168D5
:100D90008A68D20726D1A06AC0063AD4A06A41F276
:100DA000021290430230A062E069D4E9013240EAC5
:100DB000030C531EB3FA83F35D091346B2F5807F2B
:100DC00018BF2B02207D257B01284CEA45002CD141
:100DD00035B3A56A45F02005A562E56A45F0010531
:100DE000E56222E0054602E08868C007D3D000F043
:100DF00025FC401B21680328F6D38868C007F3D080
:100E0000A06A40F01000A062E06A40F00100E062D9
:100E1000A06AA06A40F01000A0620120B0BD00BF2F
:100E2000A56903EB4533A3F5C0534D68B2F5807F48
:100E300025F4694543EA05034B608B684FF2FD7565
:100E4000CFF6E17503EA050343EA00038B6001D0A6
:100E5000012A07D122690023CFF6F07303EB025277
:100E600001E000BF0022CB6A23F470031A43CA6278
:100E7000896840F6FE62CFF61F721140814207D1A9
:100E80000020E062A16A012262F30101A162B0BD0B
:100E9000A06A40F0100020F00200A062E06A40F07A
:100EA0000100E0620120B0BD80B586B0006842F666
:100EB0000001C4F2010188424FF00001CDE90411A4
:100EC000CDE9021124D042F20041C4F2010188426E
:100ED0003FD141F21800C4F20200016841F40071F0
:100EE0000160016801F4007101910199016841F00C
:100EF000080101600068022100F0080001900198DB
:100F000040F60000C4F2010000F580601BE000BF65
:100F100041F21800C4F20200016841F480610160EE
:100F2000016801F4806101910199016841F00401B7
:100F300001600068012100F004000190019840F672
:100F40000000C4F2010002910321039102A900F004
:100F500061FA06B080BD000010B5044690F8240088
:100F6000012804BF022010BD012084F8240020467F
:100F7000FFF7DAFB20B1002084F82400012010BD27
:100F800042F2044C2068A16AC4F2010C40F2013222
:100F900091430CF57F7201F580719042A16229D0D6
:100FA000A16A21F48011A1624168490504D5A16AB2
:100FB000012363F30D31A162A16A0023C9044FF03C
:100FC000000144BFE16A21F00601E1626FF0020115
:100FD00084F824300160816801F46021B1F5602F4C
:100FE0001BD1904214D0816841F4A001816000209F
:100FF00010BD00BFDCF8001011F4702FD0D0A16A32
:1010000041F48011A162DCF800104905CFD4D3E788
:10101000DCF8001011F4702FE5D0816841F48011E4
:101020008160002010BD0000014690F821000228D8
:1010300016D10868D1E90FC3026822F00E020260DF
:10104000026822F001020260012000FA03F2CCF8EB
:10105000042081F821000020002281F82020704720
:10106000042088630120002281F8202070470000BE
:1010700090F82110022923D1026840F2040C116873
:10108000C4F2020C21F00E01116013682F21C4F28A
:1010900002018A4223F00103136015DD3023C4F2FC
:1010A00002039A421CD04423C4F202039A421BD08A
:1010B0005823C4F202039A421CD14FF4803321E03A
:1010C00004218163012070470823C4F202039A427D
:1010D0000ED01C23C4F202039A420BD1102311E05C
:1010E0004FF480730EE000BF4FF480530AE000BF5E
:1010F000012307E00CF168014FF080738A4208BFBA
:101100004FF480130121CCF8003080F82110416B9E
:101110000022002980F8202004BF0020704780B5FD
:101120008847002080BD000010B5D0E90FCE0168CF
:10113000DCF800300A6823FA0EF35C072AD512F0B7
:10114000040427D00A68920603D40A6822F0040235
:101150000A602F22C4F20202914240F20402C4F259
:1011600002025BDD3023C4F20203994272D04423B1
:10117000C4F20203994273D05823C4F20203994285
:1011800040F07A804FF480231360C16A002940F058
:1011900098806FE09C0727D512F0020424D00A68DB
:1011A000920606D40A6822F00A020A60012280F838
:1011B00021202F22C4F20202914240F20402C4F222
:1011C00002023BDD3023C4F20203994260D0442383
:1011D000C4F2020399425FD05823C4F20203994239
:1011E00060D14FF4003365E01B0743D512F00802CD
:1011F00008BF10BD0A6822F00E020A60012101FA40
:101200000EF2CCF80420816380F82110016B0022DB
:10121000002980F8202054D12CE000BF0823C4F21C
:101220000203994222D01C23C4F20203994223D123
:1012300040231360C16A002943D11BE00823C4F294
:10124000020399422CD01C23C4F20203994229D1F3
:1012500020232FE04FF480631360C16A89BB09E04B
:101260004FF480431360C16A59BB03E00423136049
:10127000C16A31BB10BD00BF02F168044FF080634A
:10128000A14208BF4FF480031360C16AC9B9F1E7F6
:101290004FF400730EE000BF4FF400530AE000BFAC
:1012A000022307E002F168044FF00073A14208BF77
:1012B0004FF400131360816A0022002980F8202077
:1012C000D8D0BDE810400847014600284FF0010083
:1012D00008BF70472DE9F043D1F800C04FF6F8730E
:1012E000CBF6FD734CF6CD426344CCF6CC42A3FB67
:1012F00002236FF0030202EA93020023C4F2020306
:1013000001F10C08C1E90F320222D1E9019E98E8EF
:10131000F00181F82120DCF8002043F6F0739A43B5
:1013200042EA090242EA0E0222432A4332433A4386
:1013300042EA0802CCF8002000228A6381F82100EA
:1013400081F820200020BDE8F043704790F820C0CD
:10135000BCF1010F04BF02207047F0B54FF0010E41
:1013600080F820E090F821C0BCF1010F26D14FF0A9
:10137000020C80F821C04FF0000CC0F838C0D0E952
:1013800000C4C56AC66BDCF80070102C27F001079A
:10139000CCF80070006C0EFA00F070600846CCF8D3
:1013A000043004BF10460A46CCF80800CCF80C20E4
:1013B000DCF8000045B140F00E000DE0002180F89F
:1013C00020100220F0BD00BF20F00400CCF8000087
:1013D000DCF8000040F00A00CCF80000DCF8000067
:1013E00040F00100CCF800000020F0BDB0B504468C
:1013F00000F024F9054640F20000C2F20000007837
:10140000611C18BF044400BF00F018F9401BA04243
:10141000FAD3B0BD2DE9F04F82B00E68002E00F077
:10142000FD8041F20042C4F20102042340F2004E6A
:10143000904208BF03234FF6FF7CC4F2010E0093D5
:1014400000240123C1F2100C4FF0000A4FF00009F4
:101450004BE000BF41F20002C4F20102009F904243
:1014600008BF022704F00C030F229A402BEA020265
:1014700007FA03F34FEA9A051A4346F825204E6807
:1014800040F20C45F202DEF8082054BF22EA0802BE
:1014900042EA0802C4F20105CEF808202A68B30225
:1014A00054BF22EA080242EA08022A60B303DEF8C7
:1014B000042054BF22EA080242EA0802F303CEF8ED
:1014C0000420DEF800204FF0010354BF22EA080296
:1014D00042EA0802CEF800200E680AF1010A36FA44
:1014E0000AF204F1040400F0998003FA0AFB16EAF8
:1014F0000B08F1D04E68664512DC122E56D8DFE894
:1015000006F0350B4D4955555555555555555555BD
:1015100055555545510000BFD1F80C9046E000BF2D
:101520004FF6FF72C1F2210296420FDC0022C1F297
:10153000110296421AD00022C1F21202964215D030
:101540000022C1F22102964210D02FE00022C1F207
:10155000220296420AD00022C1F23102964205D000
:101560000022C1F23202964220D100BF8A684AB1FD
:10157000012A14BFC0F814B0C0F810B04FF0080929
:1015800014E000BF4FF0040910E000BFCA6802F188
:1015900004090BE04FF0000908E000BFCA6802F13F
:1015A000080903E0CA6802F10C0900BF024626469A
:1015B000B8F5807F24BF0432203E17680F25B54060
:1015C00027EA050509FA06F635431560CA79D206F9
:1015D0007FF582AF41F21803C4F202031A68AEF538
:1015E0007E7642F001021A601A6802F0010201924E
:1015F000019A2AF0030256F802B040F60002C4F243
:101600000102904208D040F60042C4F2010290422A
:101610007FF420AF012725E7002723E702B0BDE8CC
:10162000F08F00008068084018BF0120704700005C
:10163000002A08BF090401617047000043F2FC5012
:10164000C2F2000000687047002804BF0120704704
:10165000F0B581B0044690F83D0028B9002084F828
:101660003C00204600F090FB242084F83D002068D8
:10167000016821F001010160016841F4004101604D
:10168000016821F40041016000F028FE636848F21F
:10169000A16CC0F2010C40F60011C0F23D0163459F
:1016A0003CBF48F28041C0F21E01884202D20120B4
:1016B00001B0F0BD4DF68361C4F21B31A0FB0112F5
:1016C0002168970CD1F804E04FF496762EF03F0590
:1016D00045EA92454D60774348F638160D6AC0F2E8
:1016E0004106A7FB067625F03F07634538BF960CF9
:1016F000721C3A430A62CA6948F2A0664CF6FF7748
:10170000C0F20106B34222EA07020BD801385B009F
:10171000B0FBF3F001306FF31F30042898BF0420B2
:101720001BE000BFA768013857B119277B43B0FB06
:10173000F3F001306FF31F3070B100F5804007E027
:1017400003EB4303B0FBF3F001306FF31F3018B12C
:1017500000F5004001E000BF01201043C8610868A7
:10176000D4E9072320F0C0001043184308608868BC
:1017700048F2FF3204F10C0790438CCF184310431A
:10178000A6698860C86820F0FF0038433043C8600D
:10179000086840F00100086000202021206484F8DF
:1017A0003D10206384F83E0001B0F0BD2DE9F04704
:1017B00084B0044600201F46164689460290FFF773
:1017C0003DFF94F83D10202924D10546206800BF34
:1017D000816989071AD5FFF731FF411B20681A2953
:1017E000F6D381698907F3D500202021206384F88E
:1017F0003D1084F83E00216C41F02001216484F802
:101800003C00022004B0BDE8F08700BF94F83C1013
:10181000012903D1022004B0BDE8F087012184F83A
:101820003C100168C90703D1016841F00101016062
:101830000168DDF8308021F400610160222184F824
:101840003D10102184F83E100021216466626785F6
:10185000618D0227C0F201072185A7F10211E16223
:10186000E16A026811F5803F42F48062026018BFAD
:1018700001293DD1016841F48071016020464FF09B
:10188000011100224346009502F080FC50B120680F
:101890000068C00544BF4FF400702064012004B00C
:1018A000BDE8F0872069B0F5804F27D149F00100ED
:1018B000C0B2216842460861204639462B4602F0F4
:1018C0004BFD0028EAD1208D022861D0012849D0A3
:1018D000002840F073800020039020684169039144
:1018E000816903910399016841F40071016071E01D
:1018F0000829BFD0216B1129BCD0BFE7062000EA20
:10190000D916206806F1F0010161B91D2046424652
:101910002B4602F021FD0028C0D120685FFA89F132
:1019200001612046394642462B4602F015FD00284B
:10193000B4D10020039020680022416943460391FE
:10194000816903910399016841F480710160204627
:101950004FF00111009502F019FC002897D146F0D4
:10196000F100A6E72068016821F480610160EFF3CF
:10197000108072B60020039020684169039181694C
:1019800003910399016841F40071016062B621E09E
:101990002068016841F400610160EFF3108072B6C5
:1019A00000200390206841690391816903910399A4
:1019B000016821F48061016062B60BE02068016873
:1019C00041F48061016000210391416903918069C4
:1019D00003900398208D002800F0CA8040F2080987
:1019E0004BF2895A0237C2F20009C1F2F84A2326A3
:1019F0000EE000BF10690870606A218D01306062DE
:101A0000481E2085618D01396185010400F0B08098
:101A100080B203280CD802282CD001284AD12046B5
:101A200041462A4602F004FD002800F09C8035E77C
:101A3000204641462A4602F0FBFC00287FF42EAFE8
:101A40002068616A00690870606A2268411C208D04
:101A5000616201382085638D013B638553695B07B3
:101A6000D3D580B20328C5D1106820F480601060FF
:101A7000C0E700BF2046394600224346009502F0E9
:101A800085FB00287FF40AAFEFF3108072B6206860
:101A9000616A026842F40072026000690870606A5C
:101AA000218D01306062481E2085608D013860857F
:101AB00062B658E02046394600224346009502F0BF
:101AC00065FB00287FF4EAAE2068016821F480619C
:101AD0000160EFF3108072B62068616A00690870D7
:101AE000606A218D0130013960622185618D013983
:101AF0006185D9F80010C908A1FB0A12110A7143C7
:101B00000291029901390291029900293CD0216881
:101B10004A69520717D4029A013A0292029A9AB37A
:101B20004A6952070FD4029A013A0292029A5AB3B2
:101B30004A69520707D4029A013A0292029A1AB3EA
:101B40004A695207DDD50A6842F400720A600969E1
:101B50000170606A218D01306062481E2085608DB1
:101B60000138608562B62068616A006943E700BF9A
:101B7000202084F83D00002084F83E0084F83C00DA
:101B800004B0BDE8F08700BF00202021206384F866
:101B90003D1084F83E00216C41F02001216462B6C2
:101BA00084F83C00012004B0BDE8F0872DE9F04343
:101BB00083B01E46174689460446FFF73FFD94F85A
:101BC0003D10202924D10546206800BF816989077E
:101BD0001AD5FFF733FD411B20681A29F6D3816916
:101BE0008907F3D500202021206384F83D1084F874
:101BF0003E00216C41F02001216484F83C00022069
:101C000003B0BDE8F08300BF94F83C10012903D174
:101C1000022003B0BDE8F083012184F83C10016884
:101C2000C90703D1016841F001010160016840F278
:101C3000020821F400610160212184F83D10102187
:101C400084F83E100021216467626685618DC0F2D0
:101C500001082185A8F10211E162E16A0A9E11F5ED
:101C6000803F18BF01291DD1016841F480710160D6
:101C700020464FF0011100223346009502F086FA0B
:101C800050B120680068C00544BF4FF40070206464
:101C9000012003B0BDE8F0832069B0F5804F07D183
:101CA000FE2015E00829DFD0216B1229DCD0DFE708
:101CB000062000EAD9102168F030086108F1060119
:101CC000204632462B4602F047FB0028E0D1FF2099
:101CD000216800EA090008612046414632462B4649
:101CE00002F03AFB0028D3D100200290206841691D
:101CF000029180690290029806E000BF20463146BA
:101D00002A4602F0E5F918BB208D68B3204631461B
:101D10002A4602F0D5FBD8B9606A2168024612F85B
:101D2000013B0B616262628D013A6285228D531E16
:101D300023854F697F07E1D51B04DFD0437802304C
:101D40000B616062608D01386085901E2085D5E74B
:101D5000206C04289CD12068016841F40071016066
:101D6000012003B0BDE8F0832068016841F40071F0
:101D70000160202084F83D00002084F83E0084F8B3
:101D80003C0003B0BDE8F08310B586B0016845F2B1
:101D90000040C4F2000081424FF00001CDE904117F
:101DA000CDE9021102D006B010BD00BF41F2180407
:101DB000C4F20204216800F5384041F008012160B6
:101DC000216801F0080101910199C02102911221BD
:101DD00003910321059102A9FFF71CFB606840F401
:101DE00000106060606800F400100190019806B077
:101DF00010BD000040F2000043F2FC51C2F20000AE
:101E0000C2F2000100780A681044086070470000C0
:101E100080B542F20000C4F20200016841F01001F6
:101E20000160032000F0C8F80F2000F005F800F072
:101E30005DF8002080BD0000B0B586B041F21C0105
:101E4000C4F202010A68044642F002020A6009680C
:101E500001A801F0020101910199694600F01CFA04
:101E6000049D002D18BF012500F038FA4DF683615E
:101E7000A840C4F21B31A0FB01014FF0FF3000EB82
:101E8000914140F2CC7040F20042C2F20000C4F234
:101E9000000240F2E7330025C0E90021C0E9025307
:101EA0000561856100F086FC10B106B0B0BD00BFD1
:101EB00040F2CC70C2F2000000F012FD0028F4D114
:101EC0001D2000F03BF80F2C0CD81D2021460022CD
:101ED00000F046F840F204010020C2F200010C605C
:101EE00006B0B0BD012006B0B0BD000080B582B024
:101EF00041F21800C4F202000168002241F0010121
:101F00000160016801F0010101910199416841F00E
:101F10008051416040680F2100F08050009000988F
:101F20006FF0010000F01CF80420C4F20100016809
:101F3000022262F31A61016002B080BD002848BF2E
:101F4000704700F01F01012202FA01F11C2202EA8F
:101F5000D0004EF20012CEF2000281507047000015
:101F600010B54EF60C5CCEF2000CDCF80030C3F37A
:101F7000022E8EF00704042C28BF0424BEF10303B4
:101F80004FF0FF3E0EFA04F438BF0023A1439940FE
:101F90000EFA03F39A43114300F00F0200F160437D
:101FA0000901043A03F564436244002848BF02F182
:101FB0000C03197010BD00004EF60C51CEF200015A
:101FC0000A684FF6FF031A4060F30A2242F080606D
:101FD00040F0FD70086070472DE9F04182B0044682
:101FE000007841F21C06C007C4F202064AD03068ED
:101FF0005FEAC00808D4306840F080503060306834
:1020000000F080500190019847F20007C4F20007E9
:102010003868C00512D4386840F480703860FFF723
:102020000DFB05463868C00508D4FFF707FB401BC9
:102030006428F7D9032002B0BDE8F081706810F47D
:10204000407012D0616801F4407188420DD0706810
:1020500040F24042C4F24222012320F44071136056
:102060000023C0071360716026D17068616820F496
:1020700040700843B8F1000F706003D4306820F05E
:10208000805030602068810707D556F8181CA26878
:1020900021F44041114346F8181CC00607D556F8F4
:1020A000180CE16820F48000084346F8180C002062
:1020B00002B0BDE8F08100BFFFF7C0FA054641F26B
:1020C000883700BF70688007CFD4FFF7B7FA401B8E
:1020D000B8424FF00300F5D9EAE70000002804BF3A
:1020E000012070472DE9F04381B042F20008C4F2AC
:1020F00002080446D8F800000D4600F007008142AF
:102100000CD9D8F8000020F007002843C8F80000D8
:10211000D8F8000000F00700A8426CD1206841F216
:1021200004098107C4F2020917D5410705D5D9F87A
:10213000001041F4E061C9F80010010705D5D9F895
:10214000001041F46051C9F80010D9F80010A268DD
:1021500021F0F0011143C9F80010C00742D1D8F8AE
:10216000000000F0070085420CD2D8F8000020F0F3
:1021700007002843C8F80000D8F8000000F0070066
:10218000A84238D12068410707D5D9F80010E26885
:1021900021F4E0611143C9F80010000708D5D9F80F
:1021A0000000216920F4605040EAC100C9F8000035
:1021B000D9F8002002F00C00082841F20020C0F2FB
:1021C0007A004DD14BF21023C2F38341C0F60003D5
:1021D000595CD20338D440F60010C0F23D004843A9
:1021E0003EE000BF606859F8041C022808D00128AE
:1021F00026D1890306D4012001B0BDE8F08300BFD9
:102200008901F8D5D9F8001021F003010843C9F875
:102210000000FFF713FA064641F28837D9F80000AC
:10222000616800F00C00B0EB810F98D0FFF706FA60
:10223000801BB842F2D9032001B0BDE8F08300BF93
:102240008907D8D5DEE700BFD9F800204AF6245325
:10225000C2F34042C0F600039A5C4843B0FBF2F080
:10226000D9F800104AF6BE42C1F30311C0F60002CD
:10227000515C40F2080220FA01F140F20400C2F27F
:1022800000000068C2F200021160FFF7D5FD0020D7
:1022900001B0BDE8F08300000F22026041F20402A9
:1022A000C4F20202136803F003034360136803F0EF
:1022B000F0038360136803F4E063C36012684FF4B3
:1022C000E06303EAD202026142F20000C4F20200BB
:1022D000006800F0070008607047000040F2080046
:1022E00041F20401C2F20000C4F202010068096870
:1022F0004AF6CE42C1F30221C0F60002515CC8404A
:102300007047000040F2080041F20401C2F20000F0
:10231000C4F20201006809684AF6CE42C1F3C22144
:10232000C0F60002515CC84070470000002804BF9E
:10233000012070472DE9F04182B00446007841F257
:102340000006C007C4F202060CD0706800F00C0052
:10235000042840F081803068800303D5606800283D
:1023600000F04681207880071BD5706810F00C0FB4
:1023700009D0706800F00C00082840F08780706871
:10238000C00300F183803068800703D520690128ED
:1023900040F02E813068616920F0F80040EAC10009
:1023A00030602078000713D4207840072CD4E569EA
:1023B000002D00F01881706800F00C00082840F033
:1023C000A780012D40F00481012002B0BDE8F0811A
:1023D000A069002800F084800020C4F2422001217E
:1023E000C0F88014FFF72AF9054600BF706A80071D
:1023F00000F1B280FFF722F9401B0228F6D9032032
:1024000002B0BDE8F08100BFF0695FEAC00808D4FF
:10241000F06940F08050F061F06900F08050009069
:10242000009847F20007C4F200073868C00549D495
:10243000386840F480703860FFF700F9054600BF47
:102440003868C0053ED4FFF7F9F8401B6428F7D977
:10245000032002B0BDE8F081706800F00C0008288D
:1024600003D17068C0033FF576AF6168306800291A
:1024700000F00C81B1F5A02F00F00081B1F5803F94
:1024800040F01A8140F480301CE100BF2069002830
:1024900040F20000C4F2422000F088800121016077
:1024A000FFF7CCF8054600BF306880073FF572AFF4
:1024B000FFF7C4F8401B0228F6D9032002B0BDE89C
:1024C000F08100BFE168306A002900F09D80052995
:1024D00000F09280012940F0AF8040F00100B1E0AF
:1024E0000020C4F242200021C0F88014FFF7A6F8B3
:1024F000054600BF706A80077FF556AFFFF79EF86C
:10250000401B0228F6D9032002B0BDE8F08100BFCD
:102510000027C4F2422700203866FFF78FF8022D0B
:1025200005460DD13068800140F1DE80FFF786F866
:10253000401B02284FF00300F4D902B0BDE8F0813F
:10254000306880014FD5FFF779F8401B02284FF023
:102550000300F5D9F1E700BF40F20800C2F2000025
:10256000006844F6D351C1F26201A0FB0101480AA0
:10257000019000BF00BF0198411E002801913FF467
:1025800013AF00BF0198411E002801913FF40CAF2A
:1025900000BF0198411E002801913FF405AF00BF24
:1025A0000198411E00280191E4D1FDE6002101605F
:1025B000FFF744F8054600BF306880077FF5F1AEAD
:1025C000FFF73CF8401B02284FF00300F4D9B4E7B2
:1025D0007068216A00F480328A4209D1616A00F48D
:1025E0007010884204D1002002B0BDE8F08100BF25
:1025F000012002B0BDE8F08140F004003062306A92
:1026000040F001001EE000BF20F001003062306A9F
:1026100020F004003062FFF711F8054641F28837D8
:10262000306A800720D5FFF709F8401BB8424FF009
:102630000300F5D981E700BF20F001003062306A65
:1026400020F004003062FEF7F9FF054641F28837BA
:10265000306A800708D4FEF7F1FF401BB842F7D973
:10266000032002B0BDE8F081B8F1000F3FF59FAE46
:10267000F06920F08050F06199E600BF40F48020BE
:102680003060306840F480301CE000BF20F48030BF
:102690003060306820F480203060FEF7CFFF0546C0
:1026A000306880037FF55EAEFEF7C8FF401B6428EC
:1026B0004FF00300F4D940E720F4803030603068F8
:1026C00020F480203060FEF7B9FF054630688003B3
:1026D0003FF548AEFEF7B2FF401B6428F6D9032051
:1026E00002B0BDE8F08100BF206AB0F5803F05D19F
:1026F0007168A26821F40031114371607168626AE7
:1027000021F4741111430843706001203866FEF70C
:1027100095FF0446306880013FF565AFFEF78EFFF8
:10272000001B02284FF00300F4D906E770470000B1
:102730007047000090F83C20012A4FF0020236D08A
:1027400010B580F83D200268D2F804E0D2F808C045
:102750000C682EF07003234340F2FF74C4F20004AF
:10276000A24253600ADCB2F1804F13D040F2004322
:10277000C4F200039A420DD011E000BF42F60043BC
:10278000C4F201039A4205D040F60003C4F20003EC
:102790009A4204D149682CF08003194391600121C9
:1027A000002280F83D1080F83C20BDE81040104623
:1027B00070470000002804BF0120704710B590F852
:1027C0003D1031B9002180F83C10044600F070F84B
:1027D0002046022180F83D10016840F2FF740B682A
:1027E000C4F2000442F6004CA142C4F2010C15DC14
:1027F000B1F1804F1AD040F20042C4F2000291427F
:1028000014D0A14218DCB1F1804F1DD040F200423B
:10281000C4F20002914217D01AE000BF614505D012
:1028200040F60002C4F200029142EAD1826823F02D
:1028300070031343A142E6DD614505D040F6000276
:10284000C4F20002914203D1026923F4407313439E
:10285000846923F08002D0F804E0C3682243614514
:102860000A60CB62C1F828E002D14269CCF830207E
:1028700001224A610B69DB0703D00B6923F00103D6
:102880000B6180F8462080F83E2080F83F2080F8D9
:10289000402080F8412080F8422080F8432080F8D2
:1028A000442080F8452080F83D20002010BD000025
:1028B000006840F60001C4F20001884218BF70476A
:1028C00081B041F21C00C4F20200016841F0040131
:1028D0000160006800F004000090009801B07047AB
:1028E00090F83D1001291CBF01207047022180F89B
:1028F0003D10006840F2FF72C168C4F200029042CD
:1029000041F00101C16009DCB0F1804F12D040F20A
:102910000041C4F2000188420CD012E042F60041AE
:10292000C4F20101884205D040F60001C4F2000162
:10293000884206D1816801F00701062904BF002002
:102940007047016841F001010160002070470000FC
:1029500090F83C20012A4FF002026CD080B580F83C
:102960003D20D0F800C04FF67772DCF8083023EA3B
:102970000202CCF808200B684F2B29DC1F2B45DD09
:10298000202B46D0302B44D0402B40F0AF80D1F8E4
:1029900004E0C968DCF82030DCF8202022F00102D5
:1029A000CCF82020DCF8182022F0F00242EA0111D5
:1029B00023F00A0242EA0E02CCF81810CCF82020CC
:1029C000DCF8081041F0470121F0300128E000BF99
:1029D0006F2B33DDB3F5005F74D0B3F5805F21D08A
:1029E000702B40F08380D1E901E3C968DCF808204E
:1029F00043EA0E0322F47F4243EA01211143CCF85B
:102A00000810DCF8081041F0770109E00BB1102B39
:102A10006CD1DCF8081021F07001194341F0070176
:102A2000CCF808100022012180F83D10002180F828
:102A30003C10BDE880401046704700BF502B21D0AD
:102A4000602B53D1D1F804E0C968DCF82030DCF801
:102A5000202022F01002CCF82020DCF8182022F4EC
:102A6000704242EA013123F0A00242EA0E12CCF891
:102A70001810CCF82020DCF8081041F0670121F094
:102A80001001CDE7D1F804E0C968DCF82030DCF8AB
:102A9000202022F00102CCF82020DCF8182022F0BF
:102AA000F00242EA011123F00A0242EA0E02CCF8D7
:102AB0001810CCF82020DCF8081041F0570121F064
:102AC0002001ADE7D1E901E3C968DCF8082043EA59
:102AD0000E0322F47F4243EA01211143CCF808108F
:102AE000DCF8081041F480419AE700BF01229AE720
:102AF000002804BF012070472DE9F04F81B090F805
:102B00003D2042B9002280F83C2004460D4600F0EA
:102B10009DF829462046022280F83D20026844F2B2
:102B20000705936842F6004CAB43936040F2FF7395
:102B30001468C4F200039A42C4F2010C14DCB2F12E
:102B4000804F19D040F20045C4F20005AA4213D0CC
:102B50009A4217DCB2F1804F1CD040F20043C4F21D
:102B600000039A4216D01AE0624505D040F60005EF
:102B7000C4F20005AA42EBD1856824F070042C430E
:102B80009A42E7DD624505D040F60003C4F2000337
:102B90009A4204D1036924F4407543EA050424F001
:102BA00080038469D0F804E0C5682343624513605C
:102BB000D562C2F828E002D14369CCF830304FF03A
:102BC000010EC2F814E01569ED0703D0156925F070
:102BD0000105156195689469D2F820C0D1E90038E3
:102BE000D1E9027B43EA050A8D694FF6FF7924EAB1
:102BF000090447EA05254FF6FC47BD43D1E90776AE
:102C000044EA0B040B692C4344EA07242CF0220706
:102C1000496944EA031347EA080743EA063347EAE7
:102C20000111C2F808A09361116280F846E080F8B3
:102C30003EE080F83FE080F842E080F843E080F832
:102C40003DE0002001B0BDE8F08F000080B586B007
:102C5000014640F60000C4F20100096800F5105377
:102C6000002299420592CDE90322029202D006B0D9
:102C700080BD00BF41F21801C4F202010B6843F4A9
:102C800000630B600B6803F400630193019B0B6806
:102C900043F004030B60096801F0040101910199FC
:102CA0004FF44071CDE9021202A90492FEF7B2FB83
:102CB00006B080BD80B590F83E2090F83F3090F887
:102CC00042E090F843C004290AD0B9B9012A4FF074
:102CD000010208BFBEF1010F34D0104680BD00BF15
:102CE000012B4FF0010208BFBCF1010FF5D1022109
:102CF00080F83F1080F8431000681EE0012A4FF072
:102D0000010208BF012BE8D1BEF1010FE5D1BCF1F2
:102D1000010FE2D1022280F83E2080F83F2080F8A7
:102D2000422080F8432091B10068016A21F001013E
:102D30000162016A41F00101016210216FF010028D
:102D400009E000BF022180F83E1080F842100068C0
:102D500001216FF00102036A1A400262026A114304
:102D600001620168002241F001010160104680BD4E
:102D70007047000070B504460068C5680669B10771
:102D800016D515F0020113D06FF002010161012187
:102D900021778069800703D02046FFF7E9FF05E02F
:102DA000204600F08FF8204600F010FA002020772F
:102DB000700719D515F0040016D020686FF00401D3
:102DC000016102212177806910F4407F04D0204600
:102DD000FFF7CEFF06E000BF204600F073F8204664
:102DE00000F0F4F900202077300717D515F008001F
:102DF00014D020686FF00801016104212177C069B7
:102E0000800703D02046FFF7B3FF05E0204600F01F
:102E100059F8204600F0DAF900202077F00619D59D
:102E200015F0100016D020686FF010010161082124
:102E30002177C06910F4407F04D02046FFF798FF47
:102E400006E000BF204600F03DF8204600F0BEF945
:102E500000202077F00718BF15F0010002D13006DE
:102E600009D412E020686FF001010161204600F0F2
:102E700071FA300609D515F0800006D020686FF091
:102E8000800101612046FFF751FC700609D515F05D
:102E9000400006D020686FF040010161204600F03C
:102EA00063FAB00658BF70BD15F0200008D0216845
:102EB0006FF0200220460A61BDE87040FFF738BC81
:102EC00070BD00007047000090F83C30012B04BF3B
:102ED000022070474FEAB202032A00F2F1802DE986
:102EE000F043DFE802F003A53B7500BF036842F63C
:102EF00000461D6A1A6AC4F2010622F001021A6233
:102F00001A465C6852F818CFB3428E68D1F800E0D8
:102F100025F0020545EA06050CD1CE68D1E9057811
:102F200024F4407425F00C0526F004063C43354398
:102F300044EA08042CF0730747EA0E075C609F61BF
:102F40004F6809695F631D629F6947F008079F61C9
:102F50009F6927F004079F61A6E000BF036842F65F
:102F600000461D6A1A6AC4F2010622F480721A62CF
:102F70001A46D3F804C052F81CEFB3428E680C68AE
:102F800025F4007545EA06250FD1CE68D1E90598EC
:102F9000360240F2FF4725F44065BE4335432CF42A
:102FA000405748EA090647EA061C2EF073072743F4
:102FB000C3F804C0DF614F680969DF631D62DF6920
:102FC00047F00807DF61DF6927F00407DF616BE086
:102FD000036842F60047D3F820C01A6AC4F201071A
:102FE00022F480521A621A465C6852F81C5FD1F8CB
:102FF00000E08E68BB4204D14F6924F4804444EA67
:1030000087142CF4005747EA063725F4E64646EACB
:103010000E265C60DE614E6809691E641F62DF690E
:1030200047F40067DF61DF6927F48067DF613AE01A
:10303000036842F600461D6A1A6AC4F2010622F0CD
:1030400010021A621A46D3F804C052F8184FB3425D
:103050008E68D1F800E025F0200545EA06150FD16D
:10306000CE68D1E905986FF0400725F0C00507EA62
:10307000061635432CF4406748EA090647EA860CF1
:1030800024F4E64444EA0E27C3F804C09F614F6865
:1030900009699F631D629F6947F400679F619F698B
:1030A00027F480679F6109021368194311600021AA
:1030B000BDE8F043002280F83C200846704700BF7E
:1030C0000121002280F83C2008467047002804BFF8
:1030D0000120704710B590F83D1031B9002180F8FB
:1030E0003C10044600F070F82046022180F83D10A4
:1030F000016840F2FF740B68C4F2000442F6004C11
:10310000A142C4F2010C15DCB1F1804F1AD040F29B
:103110000042C4F20002914214D0A14218DCB1F185
:10312000804F1DD040F20042C4F20002914217D0FD
:103130001AE000BF614505D040F60002C4F200026B
:103140009142EAD1826823F070031343A142E6DD85
:10315000614505D040F60002C4F20002914203D15D
:10316000026923F440731343846923F08002D0F88A
:1031700004E0C368224361450A60CB62C1F828E0DD
:1031800002D14269CCF8302001224A610B69DB0789
:1031900003D00B6923F001030B6180F8462080F80F
:1031A0003E2080F83F2080F8402080F8412080F8C1
:1031B000422080F8432080F8442080F8452080F8A1
:1031C0003D20002010BD0000704700007047000047
:1031D000C1B1042908D0082914BF41224022825CD1
:1031E000012A05D016E000BF3F22825C012A11D1DE
:1031F0000222082910D0042914BF80F8412080F849
:103200003F200BE090F83E20012A03D1022280F8F3
:103210003E2003E00120704780F84020006801F064
:103220001F010122036A8A4023EA02010162036A44
:1032300042F64441C4F201011A43A1F14403984209
:1032400002620FD040F2FF71C4F20001884213DC29
:10325000B0F1804F1CD040F20041C4F2000188421E
:1032600016D01CE00A6842F400420A6040F2FF7186
:10327000C4F200018842EBDD42F60041C4F20101D4
:10328000884205D040F60001C4F20001884206D110
:10329000816801F00701062904BF0020704701681A
:1032A00041F00101016000207047000080B5026814
:1032B00001F01F0C012303FA0CFE136A42F6004CC6
:1032C00023EA0E031362C4F2010C136A624513620F
:1032D00011D1DCF820C041F211131CEA030F0AD10E
:1032E000D2F820C040F244431CEA030F03D1536CD0
:1032F00023F400435364D2F820C041F211131CEAB6
:10330000030F06D1D2F820C040F244431CEA030F59
:1033100014D0082918D004290AD000294FF001013F
:1033200014BF80F8411080F83E10002080BD00BF1F
:10333000012180F83F10002080BD00BF136823F0FA
:10334000010313600829E6D1012180F84010002014
:1033500080BD0000006840F20041C4F200018842D4
:1033600018BF7047FEF746BD704700007047000069
:103370007047000090F8411090F842000843C0B236
:1033800070470000B0B582B001680A68CC684B692C
:1033900002F02F05202D04F0200505D125B102B043
:1033A000BDE8B04003F0D4B85FEA027C1EBF03F072
:1033B000010E04F4907313EB0E0341D1036BD50699
:1033C00018D5012B16D114F0100313D0002201924E
:1033D0000A6801924A680192019A496949064BD4E8
:1033E000818DC28DC38D002B18BF914240F0F481B6
:1033F00002B0B0BD13062DD514F080032AD090F88A
:103400004120212AF4D18268B2F5805F03D102699C
:10341000002A00F06782026A531C036212784A6035
:10342000C28C013A1304C284E2D1C86820F0800043
:10343000C860C86840F04000C86002B0B0BD00BFBE
:10344000D30718BF14F4807340F0D080530700F105
:10345000D380D8E05206CBD514F04002C8D0CA6859
:1034600022F04002CA60202180F8411002B0BDE87D
:10347000B04000F095BB00BFC16B0A68526893B2C0
:10348000002BB5D0858DAB42B2D2C2858969202987
:1034900000F0A180016851E8031F026821F48071E7
:1034A00042E80313DBB1016851E8031F026821F40D
:1034B000807142E8031393B1016851E8031F026869
:1034C00021F4807142E803134BB1016851E8031FF6
:1034D000026821F4807142E80313002BDAD10168FD
:1034E00051E8051F026821F0010142E80513C3B34A
:1034F000016851E8051F026821F0010142E8051347
:103500007BB3016851E8051F026821F0010142E820
:10351000051333B3016851E8051F026821F001016A
:1035200042E80513002BDAD11BE000BF016851E827
:10353000051F026821F0400142E80513DBB1016874
:1035400051E8051F026821F0400142E8051393B1DC
:10355000016851E8051F026821F0400142E80513A7
:103560004BB1016851E8051F026821F0400142E8B3
:103570000513002BDAD1202180F8421000210163CD
:10358000016851E8031F026821F0100142E80313AB
:10359000DBB1016851E8031F026821F0100142E825
:1035A000031393B1016851E8031F026821F0100171
:1035B00042E803134BB1016851E8031F026821F090
:1035C000100142E80313002BDAD1C16B0446084610
:1035D000FDF72AFD204602214163818DC28D891AA3
:1035E00089B202B0BDE8B040FFF7C0BE436C43F003
:1035F00001034364530706D5BEF1000F03D0436CAB
:1036000043F002034364930706D5BEF1000F03D0D5
:10361000436C43F004034364BCF1000F06D55EEA3B
:10362000050303D0436C43F008034364436C002B51
:103630003FF4DEAE920605D525B1044602F088FFC0
:10364000216820464969426C01F0400102F00802FD
:10365000891800F0B98000BF016851E8031F0268B3
:1036600021F4907142E80313BBB3016851E8031FD2
:10367000026821F4907142E8031373B3016851E8C2
:10368000031F026821F4907142E803132BB3016811
:1036900051E8031F026821F4907142E80313002BE4
:1036A000DAD11AE0016851E8051F026821F0010132
:1036B00042E80513DBB1016851E8051F026821F0FB
:1036C000010142E8051393B1016851E8051F026842
:1036D00021F0010142E805134BB1016851E8051FD3
:1036E000026821F0010142E80513002BDAD1016BD9
:1036F000012924D1016851E8031F026821F010015B
:1037000042E80313DBB1016851E8031F026821F0AE
:10371000100142E8031393B1016851E8031F0268E6
:1037200021F0100142E803134BB1016851E8031F77
:10373000026821F0100142E80313002BDAD12021A6
:1037400080F842100021016301684969490640F18F
:10375000C380016851E8051F026821F0400142E87A
:103760000513DBB1016851E8051F026821F0400133
:1037700042E8051393B1016851E8051F026821F082
:10378000400142E805134BB1016851E8051F02688A
:1037900021F0400142E80513002BDAD1C16B00296A
:1037A00000F09A8046F21132C0F600020446084644
:1037B0004A63FDF75DFC00283FF41AAEE06B416BF5
:1037C00002B0BDE8B04008470446FFF7D1FD002035
:1037D000606402B0B0BD00BF891A00BF026852E841
:1037E000032F036822F4907243E80325BDB30268F7
:1037F00052E8032F036822F4907243E8032575B35F
:10380000026852E8032F036822F4907243E803250C
:103810002DB3026852E8032F036822F4907243E844
:103820000325002DDAD11AE0026852E8052F03685B
:1038300022F0010243E80525DDB1026852E8052FB8
:10384000036822F0010243E8052595B1026852E8B9
:10385000052F036822F0010243E805254DB10268F7
:1038600052E8052F036822F0010243E80525002DE8
:10387000DAD1202280F8422000220263026852E856
:10388000032F036822F0100243E80325DDB102682C
:1038900052E8032F036822F0100243E8032595B194
:1038A000026852E8032F036822F0100243E8032560
:1038B0004DB1026852E8032F036822F0100243E87A
:1038C0000325002DDAD1022289B2426302B0BDE89D
:1038D000B040FFF74BBD00BF02B0BDE8B040FFF7FE
:1038E00047BD00BF026A32F8023B6FF35F234B60B3
:1038F000026295E5002804BF0120704710B5044618
:1039000090F8410028B9002084F84000204600F0DB
:1039100063F8242084F841002068D4E90212C368C7
:1039200023F40053C360036923F440531A43026134
:10393000D4E904231143C268194341F20C639A434A
:103940001143C1604169A26921F44071114343F6FA
:103950000002C4F201029042416103D0FEF7BEFCB6
:1039600002E000BFFEF7CEFCD4E900231921484352
:103970009900B0FBF1F048F21F5CC5F2EB1CA0FB14
:103980000C314FF69C734909C0F6FF7301FB03002D
:10399000322303EB0010A0FB0C03F02000EA5310CD
:1039A00000EB0110C3F3431108449060106920211B
:1039B00020F490401061506920F02A005061D068D6
:1039C00040F40050D0600020606484F8411084F816
:1039D0004210606310BD00002DE9F04186B040F652
:1039E00000450446C4F201050068A5F544410027DE
:1039F00088420597CDE90377029703D006B0BDE86A
:103A0000F08100BF41F21800C4F20200416802AE2A
:103A100041F480214160416840F21C0801F480219A
:103A2000019101990168C4F2020841F008010160A6
:103A30000068314600F00800019001984FF4806062
:103A4000029002200390032005902846FDF7E2FC37
:103A50004FF40060CDE90207284631460497FDF790
:103A6000D9FC40F2A86508F11400C2F200058026D6
:103A7000C5E900072846C5E90276C5E90477C5E926
:103A80000677FDF721FC002818BFFDF7B7F8E563BE
:103A90006C6240F2EC65C2F2000510200021C5E91D
:103AA00000802846C5E90216C5E90411C5E90611DA
:103AB000FDF70AFC002818BFFDF7A0F82720052114
:103AC0000022A5636C62FEF74BFA2720FEF736FA58
:103AD00006B0BDE8F08100007047000090F841306A
:103AE000202B09D1944600294FF0010218BFBCF1E8
:103AF000000F05D11046704702221046704700BFE4
:103B000070B5002221230162A0F824C0A0F826C0CD
:103B1000426480F841300468836B46F2994E46F265
:103B2000495546F21D36C0F6000EC0F60005C0F637
:103B30000006C3E90AE5C3E90C62221D04461846E3
:103B40006346FDF703FC216820466FF040020A60DF
:103B5000016851E8051F026841F0800142E8051341
:103B6000DBB1016851E8051F026841F0800142E8BD
:103B7000051393B1016851E8051F026841F0800107
:103B800042E805134BB1016851E8051F026841F096
:103B9000800142E80513002BDAD1002070BD00003F
:103BA0007047000070470000FEE7000070B584B069
:103BB00000204FF4806140F600040390CDE900102E
:103BC0000120C4F20104029069462046FDF722FC60
:103BD00020464FF400610022FDF72AFD20464FF4F5
:103BE00000610122FDF724FD20464FF48061FDF7BE
:103BF00019FD0546002820464FF400614FF00002F1
:103C000018BF0125FDF714FD20464FF40061012285
:103C1000FDF70EFD20464FF48061FDF703FD0028FF
:103C200018BF012040EA450620464FF400610022FB
:103C3000FDF7FEFC20464FF400610122FDF7F8FC81
:103C400020464FF48061FDF7EDFC05460028204634
:103C50004FF400614FF0000218BF0125FDF7E8FCAA
:103C600020464FF400610122FDF7E2FCB00040EA7B
:103C7000450520464FF48061FDF7D4FC002818BFAD
:103C800001202E1820464FF400610022FDF7D0FCE1
:103C900020464FF400610122FDF7CAFC20464FF494
:103CA0008061FDF7BFFC0546002820464FF4006107
:103CB0004FF0000218BF0125FDF7BAFC20464FF473
:103CC00000610122FDF7B4FCB00040EA4505204642
:103CD0004FF48061FDF7A6FC002818BF01202E18C4
:103CE00020464FF400610022FDF7A2FC20464FF46D
:103CF00000610122FDF79CFC20464FF48061FDF736
:103D000091FC0546002820464FF400614FF0000268
:103D100018BF0125FDF78CFC20464FF400610122FD
:103D2000FDF786FCB00040EA450520464FF480616F
:103D3000FDF778FC002818BF0120054420464FF409
:103D400000610022FDF774FCE8B204B070BD000011
:103D50002DE9F04F85B040F60004C4F201040E4690
:103D600080464FF480694FF0110A01274FF0020B93
:103D700001A920461546CDF80490CDF808A0039778
:103D8000CDF810B0FDF746FB20464FF480610122CC
:103D9000FDF74EFC20464FF400610122FDF748FC80
:103DA00020464FF480610022FDF742FC20464FF48C
:103DB00000610022FDF73CFC08F10100C0B200F0F8
:103DC00079F800F02BF948B101A92046CDE9019A14
:103DD000CDE9037BFDF71EFB50E000BF002D3FD077
:103DE0004FF480694FF0110A4FF0020B0DF10408F7
:103DF0001FE000BF012720464146CDE9019ACDE9E9
:103E0000037BFDF707FB20464FF480613A46FDF740
:103E10000FFC20464FF400610122FDF709FC20460B
:103E20004FF400610022FDF703FC013D06F101069D
:103E300016D0FFF7BBFE307020464FF40061002221
:103E4000FDF7F6FB012DD5D00120CDE9030B20466F
:103E50004146CDE9019AFDF7DDFA0027D3E700BF1F
:103E60004FF4806001901120029001200390022005
:103E7000049001A92046FDF7CDFA002720464FF413
:103E800000610022FDF7D4FB20464FF48061002240
:103E9000FDF7CEFB20464FF400610122FDF7C8FB81
:103EA00020464FF480610122FDF7C2FB384605B081
:103EB000BDE8F08FB0B584B005464FF48060009047
:103EC00011200190012040F6000402900220C4F26B
:103ED0000104039069462046FDF79CFA20464FF402
:103EE00000610022FDF7A4FBEA0920464FF480613F
:103EF000FDF79EFB20464FF400610122FDF798FB81
:103F000020464FF400610022FDF792FBC5F38012BA
:103F100020464FF48061FDF78BFB20464FF4006193
:103F20000122FDF785FB20464FF400610022FDF7DA
:103F30007FFBC5F3401220464FF48061FDF778FB0C
:103F400020464FF400610122FDF772FB20464FF43A
:103F500000610022FDF76CFBC5F3001220464FF410
:103F60008061FDF765FB20464FF400610122FDF7FB
:103F70005FFB20464FF400610022FDF759FBC5F3BB
:103F8000C00220464FF48061FDF752FB20464FF4FB
:103F900000610122FDF74CFB20464FF40061002236
:103FA000FDF746FBC5F3800220464FF48061FDF724
:103FB0003FFB20464FF400610122FDF739FB20460C
:103FC0004FF400610022FDF733FBC5F340022046A9
:103FD0004FF48061FDF72CFB20464FF40061012275
:103FE000FDF726FB20464FF400610022FDF720FB81
:103FF00005F0010220464FF48061FDF719FB2046D1
:104000004FF400610122FDF713FB20464FF40061DD
:104010000022FDF70DFB04B0B0BD0000B0B584B0C8
:1040200040F6000400254FF48060C4F20104CDE99D
:10403000000501200290694620460395FDF7EAF944
:1040400020464FF480610122FDF7F2FA20464FF43A
:1040500000610122FDF7ECFA20464FF48061FDF784
:10406000E1FA58B3FA2D05F10105F5D34FF480605C
:1040700000901120019002200125039069462046FE
:104080000295FDF7C7F920464FF400610022FDF7C5
:10409000CFFA20464FF480610022FDF7C9FA20468E
:1040A0004FF400610122FDF7C3FA20464FF480610E
:1040B0000122FDF7BDFA284604B0B0BD20464FF4FA
:1040C000006100220025FDF7B3FA284604B0B0BD18
:1040D00070B50368044653F8140F400711D40E4618
:1040E000481C29D086BB00BF1868400527D4FDF7BF
:1040F000A5FA236853F8140F400737D5186840070E
:10410000F2D5002070BD00BF18684007F9D41868C8
:10411000400514D418684007F3D4186840050ED43D
:1041200018684007EDD41868400508D4186840079F
:104130004FF0000048BF70BD18684005E4D56FF42B
:1041400080601860042012E0154603E053F8140F55
:104150004007D6D418684005F1D4FDF76FFA401B2C
:104160002368B042F2D958694007EFD420200021DB
:104170002022216384F83D2084F83E10226C1043F5
:104180002064012084F83C1070BD00002DE9F0414E
:10419000054600681E46144601F47F0201338FB2C3
:1041A00042D0DDF81880B2F5803F40F0878040694A
:1041B0003840C01BB0FA80F04009844240F0C8800B
:1041C0004EB924E040693840C01BB0FA80F0400985
:1041D000844240F0BD80FDF731FAA0EB0801286869
:1041E000B142EFD941693940C91BB1FA81F149099E
:1041F0008C42E7D19BE000BF40693840C01BB0FA59
:1042000080F0400984424FF0000040F0A280FDF7AA
:1042100015FA286841693940C91BB1FA81F1490989
:104220008C42E9D183E000BFB2F5803F24D100BFCA
:1042300041693940C91BB1FA81F149098C4240F00A
:10424000878041693940C91BB1FA81F149098C4223
:1042500040F07E8041693940C91BB1FA81F14909BA
:104260008C4275D141693940C91BB1FA81F14909C4
:104270008C42DDD06CE000BF81693940C91BB1FAC6
:1042800081F149098C4263D181693940C91BB1FA76
:1042900081F149098C425BD181693940C91BB1FA6E
:1042A00081F149098C4253D181693940C91BB1FA66
:1042B00081F149098C42DFD04AE000BF8069384073
:1042C000C01BB0FA80F04009844241D146B923E0D6
:1042D00080693840C01BB0FA80F04009844237D171
:1042E000FDF7ACF9A0EB08012868B142F0D981696B
:1042F0003940C91BB1FA81F149098C42E8D116E075
:1043000080693840C01BB0FA80F0400984424FF009
:10431000000018BFBDE8F081FDF790F928688169B9
:104320003940C91BB1FA81F149098C42E8D100201A
:104330002021286385F83D1085F83E00296C41F066
:104340002001296485F83C000120BDE8F08100BF10
:104350000020BDE8F0810000F0B581B0044600689F
:104360001D4643698FB203EA0701B94202D100201A
:1043700001B0F0BD4169164601323CD0490512D466
:104380007EB300BFFDF75AF9411B2068B14203D943
:1043900041693940B9422BD141693940B942E6D02F
:1043A00041694905EED5016841F4007101606FF47F
:1043B00080614161042000212022216384F83D2096
:1043C00084F83E10226C1043206484F83C100120D5
:1043D00001B0F0BD41693940B942C8D041694905D1
:1043E000E1D4FDF72BF9206841693940B942F1D099
:1043F0002020E0E741694905D5D441693940B942F7
:10440000B5D041694905CED441693940B942AED0F1
:1044100041694905C7D441693940B942A7D04169CA
:104420004905C0D441693940B942E3D19FE7000052
:1044300070B504460068154650F8143F5A063DD43E
:104440000E4629B926E000BF50F8141F490635D49E
:104450000168C90621D4FDF7F1F8411B2068B1427B
:10446000F2D941694906EFD400202021206384F865
:104470003D1084F83E00206C40F0200018E000BFA2
:10448000FDF7DCF8206850F8141F4906ECD50168E8
:10449000490613D40168C906F2D56FF01001016016
:1044A00000202021206384F83D1084F83E00206C19
:1044B0002064002084F83C00012070BD002070BD05
:1044C00070B50368044653F8140F000611D40E4665
:1044D000481C29D086BB00BF1868400527D4FDF7CB
:1044E000ADF8236853F8140F000637D51868000696
:1044F000F2D5002070BD00BF18680006F9D4186816
:10450000400514D418680006F3D4186840050ED48A
:1045100018680006EDD41868400508D4186800062D
:104520004FF0000048BF70BD18684005E4D56FF437
:1045300080601860042012E0154603E053F8140F61
:104540000006D6D418684005F1D4FDF777F8401B73
:104550002368B042F2D958690006EFD42020002128
:104560002022216384F83D2084F83E10226C104301
:104570002064012084F83C1070BD00002DE9F04F4C
:1045800085B040F60004C4F201040F4680464FF4A3
:1045900080694FF0110A01254FF0020B01A9204656
:1045A0001646CDF80490CDF808A00395CDF810B0CC
:1045B000FCF730FF20464FF480610122FDF738F808
:1045C00020464FF400610122FDF732F820464FF4F7
:1045D00080610022FDF72CF820464FF40061002294
:1045E000FDF726F84046FFF765FCFFF717FD48B1D9
:1045F000CDE9019ACDE9035B01A92046FCF70AFF4A
:1046000019E000BF4EB100BF17F8010BFFF752FCD5
:10461000FFF704FD60BB013EF6D14FF480600190CE
:1046200011200290012003900220049001A920464D
:10463000FCF7F0FE002520464FF400610022FCF755
:10464000F7FF20464FF480610022FCF7F1FF20467F
:104650004FF400610122FCF7EBFF20464FF480612C
:104660000122FCF7E5FF284605B0BDE8F08F00BF4A
:104670004FF48060019011200290012502200395E3
:104680000490B9E710B540F28474C2F200042046E9
:104690003C21FEF70FFB206847F6FF71416210BD19
:1046A00040F28470C2F20000016847F6FF7C4A6A5B
:1046B0000023B2EB0C0018BF0120B3EBD23F18BFB0
:1046C0000220C1F824C0704710B582B010208DF8C8
:1046D000070000240DF1070146200122ADF8044037
:1046E000FFF74CFF10B1204602B010BD01A94620D3
:1046F0000222FFF72DFB18B10024204602B010BDA6
:104700009DF904109DF8050001F07F0240EA0220A7
:10471000002948BF00F5004005F046FD43F2333361
:10472000C3F6F3734FF0333205F060FB05F0F6FC8F
:104730000446204602B010BD10B584B040F2486077
:1047400042F20041C2F20000C4F201010022012441
:104750004FF4602304730275C361C0E900128260E4
:104760000461FCF7F5FA002818BFFCF747FA0920A6
:10477000CDE901040720039040F24860C2F2000036
:1047800001A9FCF741FA002818BFFCF737FA04B07A
:1047900010BD0000B0B584B040F2786042F6000170
:1047A000C2F20000C4F20101002401254FF460228E
:1047B00005730475C261C0E9001484600561FCF7EB
:1047C000C7FA002818BFFCF719FA0720039040F237
:1047D0007860C2F2000001A9CDE90145FCF714FAA6
:1047E000002818BFFCF70AFA04B0B0BD80B582B04B
:1047F00041F21400C4F202000168002241F00101FC
:1048000001600068052100F00100019001980C2072
:10481000FDF7A6FB0C20FDF791FB0D2005210022E2
:10482000FDF79EFB0D2002B0BDE88040FDF786BB82
:1048300010B54BF23020C0F6000002F041F940F212
:104840007004C2F20004206040F6CD004AF6145312
:10485000C0F60000C0F600030121002202F0D8F9E2
:104860004AF6D8426060C0F600021020042102F02F
:1048700071F8A06045F6DD604AF67052C0F600009F
:10488000C0F60002002102F079F9E06045F61160FF
:104890004AF62852C0F60000C0F60002002102F0DD
:1048A0006DF9206145F691604AF64C52C0F6000061
:1048B000C0F60002002102F061F9606145F6B150D6
:1048C0004AF6F042C0F60000C0F60002002102F0F5
:1048D00055F9A06110BD00002DE9F04186B0002718
:1048E00041F21800CDE90477CDE90277C4F2020065
:1048F000016840F6000841F0200101600168C4F23F
:10490000010801F02001019101990168002241F0A4
:1049100004010160016801F004010191019901683D
:1049200041F00801016000684FF4E05100F0080018
:10493000019001984046FCF77BFE4FF4805008F54B
:10494000806602ADCDE90207304629460497FCF7A0
:1049500061FD4FF42040CDE902070124304629468D
:104960000494FCF757FD4FF4806002901120CDE9CC
:1049700003040226404629460596FCF74BFD4FF4FA
:10498000C05002A991C1404629460596FCF742FD58
:1049900006B0BDE8F081000080B540F2307045F20D
:1049A0000041C2F20000C4F2000141F6802200235F
:1049B0004FF4804CC0F2060280E80E00C0E9033CD0
:1049C000C0E90533C0E90733FCF73EFE002808BF05
:1049D00080BDBDE88040FCF711B9000010B58CB077
:1049E00040F2847042F600410024C2F20000C4F29A
:1049F00001014FF6FF73012280E81600C0E903347D
:104A0000022104AB16C30F21CDE907140B9103A9B2
:104A1000CDE90044C0E905440392CDE90924FEF73D
:104A200067F8002818BFFCF7E9F840F28470C2F27A
:104A300000006946CDE90044FDF77CFE002818BF60
:104A4000FCF7DCF80CB010BDB0B594B040F6000532
:104A500040F61400C4F200050021C2F20000472213
:104A600040F2F3130E91CDE90C110991CDE9071134
:104A7000CDE90511CDE90311CDE90111C0E90052DD
:104A8000C0E9021301618161FDF794FE002818BF9F
:104A9000FCF7B4F84FF480500B9040F61400C2F2CB
:104AA00000000BA9FDF754FF002818BFFCF7A6F87B
:104AB00040F61400C2F20000FEF708FB002818BF01
:104AC000FCF79CF840F614000024C2F2000008A98C
:104AD000CDE90844FDF72EFE002818BFFCF78EF83C
:104AE0006020CDE901040394059440F61404C2F259
:104AF000000401A920460C22FEF7E6F9002818BFA1
:104B0000FCF77CF821680020A942CDE91200119041
:104B1000109001D014B0B0BD41F21800C4F20200F0
:104B2000016841F008010160006810A900F0080068
:104B30000F900F984FF40070109002201190139076
:104B400005F58230FCF766FC14B0B0BD80B540F6C8
:104B50005C0044F60001C2F20000C4F20001002330
:104B60004FF00C0C4FF4165280E80E00C0E90333EE
:104B7000C0E905C3C361FEF7BDFE002808BF80BDC4
:104B8000BDE88040FCF73AB8FEE70000FEE7000011
:104B90002DE9F04F099E90424AD11A46994288BFAA
:104BA0000A4638BF0B4641B2B1F1FF3F1ADD40F271
:104BB00098170121C2F2000726B929E00133DEB2BD
:104BC000964251D8DEB23F2EF8D803F0F80607EB34
:104BD000061603F00705345C01FA05F524EA05051D
:104BE0003554EBE7581CC0B290423DD8981CC0B277
:104BF000904239D8D81CC0B2904235D80433D8B2CC
:104C00009042EFD930E000BF0133DEB296422BD89C
:104C1000DEB23F2EF8D803F0F80607EB061603F0D5
:104C20000705345C01FA05F525433554ECE700BF70
:104C300099421BD19042114688BF014638BF0246B7
:104C4000402BC0F07F8000BF501CC0B288420BD800
:104C5000901CC0B2884207D8D01CC0B2884203D88A
:104C60000432D0B28842EFD9BDE8F08FA2EB000C3D
:104C7000A3EB010EBCF1010F4FF0010B4FF0010A45
:104C8000B8BF4FF0FF3BBEF1010FB8BF4FF0FF3A86
:104C9000BCF1000F48BFCCF1000CBEF1000F48BFC3
:104CA000CEF1000EF44540F28D8040F298190023B9
:104CB0004FF00108C2F2000976B92FE01BB273442D
:104CC0001C045844BCEBE43F04B21DB2DCBF5144A9
:104CD000A5EB0C039442C7D00406EFD4CEB23F2E0E
:104CE000ECD806F00705C1F3C20600F07F0409EB1B
:104CF000C616375D08FA05F527EA05053555DDE7DF
:104D00001BB273441C045844BCEBE43F04B21DB214
:104D1000DCBF5144A5EB0C039442A5D00406EFD4AC
:104D2000CEB23F2EECD806F00705C1F3C20600F064
:104D30007F0409EBC616375D08FA05F53D43355586
:104D4000DEE700BF03F00700012707FA00F0002E9E
:104D50004FEAD30300F0868040F29817C2F20007B2
:104D6000C04307EBC31304E00432D7B28F423FF6CF
:104D70007BAF57B2002F03D4D7B2DE5D0640DE55BD
:104D8000561CF7B28F423FF66FAF76B2002E02D4B8
:104D9000DE5D0640DE55961CF7B28F423FF664AFEB
:104DA00076B2002E02D4DE5D0640DE55D61CF7B288
:104DB0008F423FF659AF76B2002ED5D4DE5D064065
:104DC000DE55D1E740F2981900224FF00108C2F2F7
:104DD000000986B933E000BF12B2624414045144A2
:104DE000BEEBE43F0CB215B2DCBF5844A5EB0E029B
:104DF0009C423FF439AF0406EED4CEB23F2EEBD83E
:104E000006F00705C1F3C20600F07F0409EBC616E1
:104E1000375D08FA05F527EA05053555DCE700BFDB
:104E200012B2624414045144BEEBE43F0CB215B21A
:104E3000DCBF5844A5EB0E029C423FF415AF0606BA
:104E4000EED4CEB23F2EEBD8C1F3C20400F07F0700
:104E500009EBC41406F00706E55D08FA06F63543CB
:104E6000E555DDE740F29817C2F2000707EBC313E0
:104E700005E000BF0432D7B28F423FF6F5AE57B21D
:104E8000002F03D4D7B2DE5D0643DE55561CF7B2C1
:104E90008F423FF6E9AE76B2002E02D4DE5D0643C5
:104EA000DE55961CF7B28F423FF6DEAE76B2002E8C
:104EB00002D4DE5D0643DE55D61CF7B28F4288BFB2
:104EC000BDE8F08F76B2002ED4D4DE5D0643DE5509
:104ED000D0E70000F0B581B040F2985440F2307550
:104EE000C2F20004AE20C2F2000560704FF0FF363F
:104EF00028467A212246022300960227FCF756FE16
:104F000028467A212246022367700096FCF74EFE5F
:104F10001020607028467A21224602230096FCF772
:104F200045FE402728467A212246022367700096D4
:104F3000FCF73CFEB020607028467A21224602230E
:104F40000096FCF733FE8120607028467A212246C5
:104F500002230096FCF72AFECF20607028467A21B3
:104F6000224602230096FCF721FEA120607028460D
:104F70007A21224602230096FCF718FEA6206070D4
:104F800028467A21224602230096FCF70FFEA8202D
:104F9000607028467A21224602230096FCF706FE1E
:104FA0003F20607028467A21224602230096FCF7B3
:104FB000FDFDAD20607028467A212246022300962E
:104FC000FCF7F4FD8B20607028467A2122460223EC
:104FD0000096FCF7EBFD3320607028467A212246CC
:104FE00002230096FCF7E2FDC820607028467A2173
:104FF000224602230096FCF7D9FDD3206070284694
:105000007A21224602230096FCF7D0FD0020607032
:1050100028467A21224602230096FCF7C7FDD520B8
:10502000607028467A21224602230096FCF7BEFDD6
:10503000C020607028467A21224602230096FCF7A1
:10504000B5FDD920607028467A21224602230096B9
:10505000FCF7ACFD1F20607028467A21224602230F
:105060000096FCF7A3FDDA20607028467A212246DC
:1050700002230096FCF79AFD1220607028467A21E0
:10508000224602230096FCF791FDDB206070284643
:105090007A21224602230096FCF788FD28467A21D1
:1050A0002246022367700096FCF780FD40F29810BC
:1050B000C2F200004FF48061FBF70AFA00F064FCD2
:1050C000AF20607028467A21224602230096FCF722
:1050D0006DFD01B0F0BD000080B540F29810C2F245
:1050E00000004FF48061FBF7F3F980BD2DE9F04734
:1050F00082B09A46137813B30646DDF828809AF8F2
:1051000001008946571E00BF9AF80050A3F1200203
:10511000EB1DDAF80410DC08C3B202FB03F000FB5D
:105120000412F0B24946CDE9005800F031F99AF87E
:105130000100BB780644002B07F10107E4D102B05F
:10514000BDE8F0872DE9F04F87B092F80090049207
:10515000B9F1000F039100F097800446581C0290AB
:10516000187859780730C00848430430049D9A469F
:105170005FFA80FB4FF000081AE000BF221D069C7A
:10518000BA463D787B780399109FE0B2CDE900578D
:1051900000F0FEF80298B044049A1FFA88F10078F3
:1051A00012F801900444B9F1000F02EB01056BD035
:1051B0004FFA89F1B1F1FF3FCDE9051408DD012671
:1051C00057469AF808A0BAF1000F25D131E000BF88
:1051D00009F0E000C02807D1022657469AF808A037
:1051E000BAF1000F18D124E009F0F000E02807D14F
:1051F000032657469AF808A0BAF1000F0CD118E020
:1052000009F0F800F0283FD1042657469AF808A084
:10521000BAF1000F0DD000BF7C6800BF28462146C0
:105220003246FBF7BDF80028A8D0BAF1010A5C4469
:10523000F4D1F86805994268BA46002916D4067870
:105240004378A9F12001F01DC0085943069C01FBD9
:1052500000220399109FE0B2CDE9006700F098F8B2
:10526000DAF80C000126013095E700BF069C0578AE
:1052700043780399109FE0B2CDE9005700F088F819
:10528000DAF80C00013086E707B0BDE8F08F0000C7
:105290002DE9F04F01F0070CDDF824E003EB0C04DE
:1052A000092C4FEAD10847D345B2002D20D43F291D
:1052B0001ED8CCF1080BFF2323FA0BF940F2981308
:1052C000C2F2000302FA0CF603EBC813BEF1000FA2
:1052D00018BFF64313F800A046EA09070AEA0709CF
:1052E0006FF0FF0747FA0BF73E4046EA09061E54E7
:1052F000002D4BD4372949D804F1F703CCF1080726
:10530000FA40DBB24FF4FF7707FA03F340F2981745
:1053100008F10101C2F2000707EBC111BEF1000F55
:1053200018BFD2430F5C42EA030637409A433A4320
:105330000A54BDE8F08F00BF43B2002B26D43F29AA
:1053400088BFBDE8F08F611EC9B24FF4FF7340F211
:10535000981603FA01F1CCF10803FF27C2F2000608
:1053600002FA0CF2DF4006EBC816BEF1000F18BFC0
:10537000D2431743355C0F432F406FF0FF0545FACA
:1053800003F323EA0101114039433154BDE8F08FA2
:105390002DE9F04F97B0002B0692129100F0F082A9
:1053A000DDE920298246B9F1000F48461D464FEA43
:1053B000D20318BF4FF0FF30082A02F007081690FA
:1053C00004D2B8F1000F40F0C082D9E21298CDF8B3
:1053D0000C8010F00708A3F10100059003F0030012
:1053E000089005EB450010904FEA8500029311905C
:1053F000079500F0C781C8F10801FF20C84014904C
:105400006FF0FF0008411390A8F101000F91C0B2A6
:105410004FF4FF7101FA00F00E90C0430D90680048
:105420000A901C2000EAD200404200210C9009950D
:10543000CDF85480CDF810A00FE000BF10980B9964
:10544000013010900A98013101300A900998A94260
:1054500000F10100099000F06F820AEB01000B914E
:1054600041B240F2981E0029C2F2000EE6D405991E
:105470005FFA80FB032905D200240898002840F039
:10548000DD80DBE7069C032508E000BF0C980435AF
:10549000284403281198044400F0C880129800EBB7
:1054A000C50AAAF11800C1B23F2930D80B98CA0822
:1054B00014F8009015980EEBC21309FA00F616982E
:1054C000149F464013F80BE0139846EA070C0EEAC7
:1054D0000C0740F2981E0640DDF85480C2F2000E20
:1054E0003743372903F80B7011D8511C0F9A0EEB74
:1054F000C11129FA02F0169A0E9B504011F80B20A8
:1055000003431A400D9B1840104301F80B00AAF109
:105510001000C1B23F2929D80998CA0814F800C060
:1055200016980CFA08F343400EEBC217149817F8BC
:105530000B6018433040139EDDF85480334018430D
:10554000372907F80B0011D80F99501C169A2CFA1E
:1055500001F10EEBC0100E9B514010F80B200B43D5
:105560001A400D9B1940114300F80B10AAF10800D6
:10557000C1B23F2929D80A98CA0814F800C0169861
:105580000CFA08F343400EEBC217149817F80B609F
:1055900018433040139EDDF85480334018433729B8
:1055A00007F80B0011D80F99501C169A2CFA01F12C
:1055B0000EEBC0100E9B514010F80B200B431A400D
:1055C0000D9B1940114300F80B105FFA8AF13F2937
:1055D0003FF65CAF1098CA0814F800C016980CFA91
:1055E00008F343400EEBC217149817F80B601843EA
:1055F0003040139EDDF8548033401843372907F8B4
:105600000B003FF643AF0F99501C169A2CFA01F18C
:105610000EEBC0100E9B514010F80B200B431A40AC
:105620000D9B1940114300F80B102FE7EC1EDDF81D
:1056300010A0079D089800283FF400AF1298069923
:1056400000EBC4000B9AC0B23F2801EB020C2BD830
:1056500004FB05F11CF80190C208169909FA08F339
:105660000EEBC217149D4B4017F80B6013991D43A6
:105670002E40079D0B40DDF854803343372807F850
:105680000B3011D8501C0F9A0EEBC01029FA02F102
:10569000169A0E9B514010F80B200B431A400D9B9D
:1056A0001940114300F80B10089801283FF4C6AECA
:1056B0001298611C00EBC100C0B23F282AD8694390
:1056C0001CF80190C208169909FA08F30EEBC217EC
:1056D000149D4B4017F80B6013991D432E40079DF6
:1056E0000B40DDF854803343372807F80B3011D8CE
:1056F000501C0F9A0EEBC01029FA02F1169A0E9B5D
:10570000514010F80B200B431A400D9B19401143D8
:1057100000F80B10089802283FF490AE1298A11CD4
:1057200000EBC100C0B23F283FF688AE69431CF8C9
:105730000110169FC20801FA08F37B400EEBC21756
:10574000149D17F80B60139C1D432E40079D2340AA
:10575000DDF854803343372807F80B303FF66EAE40
:10576000501C0F9A0EEBC010D140169A0E9B514060
:1057700010F80B200B431A400D9B1940114300F801
:105780000B105BE61C2000EAD2004FEA450EC0F188
:10579000000C0024A9460AE01098013401300EF1F3
:1057A000010EAC4209F10109109000F0C5800AEB2E
:1057B000040041B20029EFD40599C3B2032905D2F0
:1057C0000020089900296BD1E6E700BF0698032264
:1057D00007E000BF04320CEB0201032911990844D1
:1057E00058D0129901EBC201A1F11805EEB23F2E7B
:1057F0000ED9A1F11005EEB23F2E1AD9A1F108057C
:10580000EEB23F2E27D9CDB23F2DE3D833E000BF13
:10581000065D169F05F0F8057E4040F29817C2F22B
:10582000000707EB0515EE54A1F11005EEB23F2E6F
:10583000E4D810F80960169F05F0F8057E4040F2A4
:105840009817C2F2000707EB0515EE54A1F1080501
:10585000EEB23F2ED7D810F80E60169F05F0F8056F
:105860007E4040F29817C2F2000707EB0515EE5490
:10587000CDB23F2DAED8109D169E455D01F0F801CA
:10588000754040F29816C2F2000606EB0111CD54A5
:10589000A0E700BF079DD01E089900293FF47CAF08
:1058A000129901EBC002D1B23F29069921440ED8CA
:1058B000079D169E45434D5D02F0F802754040F28B
:1058C0009816C2F2000606EB0212D554079D089AFC
:1058D000012A3FF461AF129A451C02EBC502D6B211
:1058E0003F2E0DD8079E02F0F80275434D5D169EBF
:1058F000754040F29816C2F2000606EB0212D5542B
:10590000089A079D022A3FF447AF821C129800EBC9
:10591000C200C5B23F2D079D3FF63EAF6A43895C8A
:10592000169A00F0F800514040F29812C2F20002BC
:1059300002EB0010C1542FE7DDF80C80DDE92029CF
:10594000029BB8F1000F1BD0D5B1129902F0F800FC
:1059500001440698CEB203FB05046D424FF0FF30C0
:10596000471C204442780AEB0700C0B23146434648
:10597000CDF80090FFF78CFCE81901303846EFD1E4
:1059800017B0BDE8F08F00002DE9F04F81B040F274
:105990009A58C2F200084020454640F2985740F21B
:1059A000307605F8010BC2F20007B020C2F2000603
:1059B00078704FF0FF3430467A213A460223009443
:1059C0004FF0020AFCF7F2F830467A213A460223F9
:1059D00087F801A00094FCF7E9F84FF0100B30466F
:1059E0007A213A46022387F801B00094FCF7DEF8EA
:1059F00040F29819C2F20009284649468022FAF777
:105A00001AFD30467A21424681230094FCF7CEF8F5
:105A1000B120787030467A213A4602230094FCF790
:105A2000C5F830467A213A46022387F801A000944F
:105A3000FCF7BCF830467A213A46022387F801B0D9
:105A40000094FCF7B3F809F1800128468022FAF7A8
:105A5000F2FC30467A21424681230094FCF7A6F8F6
:105A6000B220787030467A213A4602230094FCF73F
:105A70009DF830467A213A46022387F801A0009427
:105A8000FCF794F830467A213A46022387F801B0B1
:105A90000094FCF78BF809F5807128468022FAF70C
:105AA000CAFC30467A21424681230094FCF77EF8F6
:105AB000B320787030467A213A4602230094FCF7EE
:105AC00075F830467A213A46022387F801A00094FF
:105AD000FCF76CF830467A213A46022387F801B089
